:100000000C9434000C9471030C949A030C945100DA
:100010000C9451000C9451000C9451000C9451001C
:100020000C9451000C9451000C9451000C9451000C
:100030000C9451000C9451000C94D2030C94510078
:100040000C9451000C9451000C9451000C945100EC
:100050000C9451000C9451000C9451000C945100DC
:100060000C94A6020C94510011241FBECFEFD8E0CF
:10007000DEBFCDBF11E0A0E0B1E0EAEBF0E102C0ED
:1000800005900D92A831B107D9F721E0A8E1B1E0C0
:1000900001C01D92AF32B207E1F70E940A080C942A
:1000A0005B080C9400000895089581309105C9F013
:1000B00018F0029759F1089581E090E0A0E0B0E0D7
:1000C00004C0880F991FAA1FBB1F6A95D2F724B1DD
:1000D0004130510519F4822B84B90895809582230B
:1000E000FBCF81E090E0A0E0B0E004C0880F991F52
:1000F000AA1FBB1F6A95D2F727B14130510519F4E9
:10010000822B87B9089580958223FBCF81E090E010
:10011000A0E0B0E004C0880F991FAA1FBB1F6A951A
:10012000D2F72AB14130510519F4822B8AB90895CA
:1001300080958223FBCF81309105C1F018F00297A2
:1001400049F1089581E090E0A0E0B0E004C0880F9C
:10015000991FAA1FBB1F6A95D2F725B1452B19F02D
:10016000822B85B9089580958223FBCF81E090E0B2
:10017000A0E0B0E004C0880F991FAA1FBB1F6A95BA
:10018000D2F728B1452B19F0822B88B908958095B4
:100190008223FBCF81E090E0A0E0B0E004C0880FB4
:1001A000991FAA1FBB1F6A95D2F72BB1452B19F0D7
:1001B000822B8BB9089580958223FBCF81309105E6
:1001C000A1F028F0029799F090E080E0089583B1C3
:1001D00090E0B0E0A0E004C0B695A795979587950C
:1001E0006A95D2F7817090E0089586B1F1CF89B118
:1001F000EFCF8130910599F018F00297F9F008954A
:1002000035B181E090E0A0E0B0E004C0880F991F14
:10021000AA1FBB1F6A95D2F7832785B9089538B105
:1002200081E090E0A0E0B0E004C0880F991FAA1F11
:10023000BB1F6A95D2F7832788B908953BB181E047
:1002400090E0A0E0B0E004C0880F991FAA1FBB1F78
:100250006A95D2F783278BB9089580E480937C0058
:1002600087E080937A0080917A00806880937A009A
:1002700080917A0086FDFCCF809178008091790092
:10028000089590917C00907F8770982B90937C00CC
:1002900080917A00806480937A0080917A0086FD54
:1002A000FCCF809178009091790008959A0150E0F8
:1002B00040E0E4E0220F331F441F551FEA95D1F7B9
:1002C0000E941F08BA01A901415051096109710931
:1002D000BB27A72F962F852F8093C5004093C4007E
:1002E00088E18093C10086E08093C2000895FC01FC
:1002F00070E09F01281B390B261737070CF0089573
:100300002091C00025FFFCCF21912093C600F1CFA2
:100310008F929F92AF92BF92EF92FF920F931F9393
:10032000CF93DF938C010E94F7034B015C017801AE
:10033000D0E0C0E00E94F703681979098A099B0997
:10034000693E73408105910518F4C233D10581F4EB
:10035000F801EC0FFD1F1082CE01DF91CF911F91AC
:100360000F91FF90EF90BF90AF909F908F90089566
:100370008091C00087FFDECF8091C600F701819396
:100380007F010E94F7034B015C01F70131978081E7
:100390008A30F1F28D30E1F22196CCCF50E040E08E
:1003A00061E090E080E00E94550050E040E062E0B3
:1003B00090E080E00E94550050E040E065E090E071
:1003C00080E00E94550041E050E061E090E080E074
:1003D0000E949B0041E050E062E090E080E00E94DB
:1003E0009B0041E050E065E090E080E00C949B00D1
:1003F00061E090E080E00E94DE0021E0892B09F0BE
:1004000020E0822F089562E090E080E00E94DE000C
:1004100021E0892B09F020E0822F089565E090E02B
:1004200080E00E94DE0021E0892B09F020E0822F8D
:10043000089550E040E064E081E090E00E945500C3
:1004400041E050E064E081E090E00E949B0050E0D9
:1004500040E065E081E090E00E94550041E050E01E
:1004600065E081E090E00E949B0088E48093B80002
:10047000E9EBF0E080818C7F8083089584EA8093AB
:10048000BC0080E197E22091BC0027FF09C0909159
:10049000B900987F81E0983011F0903119F40895F7
:1004A000019789F780E0089584E98093BC0008955E
:1004B0008093BB0084E88093BC0080E197E22091A8
:1004C000BC0027FF09C09091B900987F81E0983166
:1004D00011F0983219F40895019789F780E0089592
:1004E000CF93C82F50E040E064E081E090E00E94AC
:1004F000550041E050E064E081E090E00E949B0004
:1005000050E040E065E081E090E00E94550041E06D
:1005100050E065E081E090E00E949B00CC0FC0932A
:10052000BA0085EC8093BC00CF9108952091190109
:10053000222351F0F89420911801FC01208310929D
:100540001901789481E0089580E008951F920F9238
:100550000FB60F9211248F938091B900887F803855
:1005600039F48091BB008093180181E080931901D8
:1005700085EC8093BC008F910F900FBE0F901F9061
:10058000189541E050E064E082E090E00E94550060
:1005900050E040E064E082E090E00C949B006093C7
:1005A0001A0170931B0180931C0190931D010E94FE
:1005B000F70360931E0170931F01809320019093B5
:1005C000210181E08093220141E050E064E082E07B
:1005D00090E00C949B000F931F938091220188233D
:1005E00021F10E94F70300911E0110911F0120913B
:1005F000200130912101601B710B820B930B009144
:100600001A0110911B0120911C0130911D016017EE
:1006100071078207930748F050E040E064E082E011
:1006200090E00E949B00109222011F910F9108956B
:1006300041E050E060E090E080E00E94550050E032
:1006400040E060E090E080E00C949B0041E050E0EE
:1006500060E090E080E00C949B0050E040E060E0BF
:1006600090E080E00C949B0060E090E080E00C94CF
:10067000F900F894811111C0809169008C7F8093FA
:10068000690080916900682B60936900509326018E
:1006900040932501E89A789408958130E1F780919C
:1006A0006900837F8093690080916900660F660FFF
:1006B000682B609369005093240140932301E99AC9
:1006C000EACF811102C0E89A0895813009F4E99ACD
:1006D0000895811102C0E8980895813009F4E998DD
:1006E00008951F920F920FB60F9211242F933F93EC
:1006F0004F935F936F937F938F939F93AF93BF932A
:10070000EF93FF93E0912501F0912601309709F0D6
:100710000995FF91EF91BF91AF919F918F917F913B
:100720006F915F914F913F912F910F900FBE0F905E
:100730001F9018951F920F920FB60F9211242F93AE
:100740003F934F935F936F937F938F939F93AF9359
:10075000BF93EF93FF93E0912301F0912401309731
:1007600009F00995FF91EF91BF91AF919F918F9102
:100770007F916F915F914F913F912F910F900FBE9D
:100780000F901F90189584B5826084BD89EF87BD56
:10079000EEE6F0E080818260808385B5836085BD70
:1007A000789408951F920F920FB60F9211248F9391
:1007B0009F93AF93BF938091270190912801A091BF
:1007C0002901B0912A010196A11DB11D8093270135
:1007D00090932801A0932901B0932A01BF91AF9172
:1007E0009F918F910F900FBE0F901F9018952FB76C
:1007F000F8946091270170912801809129019091CE
:100800002A012FBF089522EA2093800028E1209337
:10081000810070938700609386008034910531F1E8
:1008200048F48130910511F0089779F080918100AA
:1008300081600EC0811521E09207E1F0811594409E
:10084000A9F780918100856003C08091810082605A
:1008500080938100109289001092880010928B0082
:1008600010928A0084B1866084B9089580918100D5
:100870008360EECF809181008460EACF2091860072
:10088000309187002817390720F4809186009091D5
:1008900087009093890080938800089520918600B6
:1008A000309187002817390720F4809186009091B5
:1008B000870090938B0080938A000895E1E8F0E030
:1008C0008081887F8083089523EA2093B00080325E
:1008D0009105F1F038F48130910501F1089771F03C
:1008E00087E00DC080389105A9F0811521E09207BD
:1008F00099F080349105A1F784E001C082E08093F3
:10090000B1001092B3001092B400239A539A089544
:1009100083E0F5CF85E0F3CF86E0F1CF81E0EFCF44
:100920008093B30008958093B4000895E1EBF0E064
:100930008081887F808308952F923F924F925F92AB
:100940006F927F928F929F92AF92BF92CF92DF92DF
:10095000EF92FF920F931F93CF93DF93CDB7DEB744
:1009600062970FB6F894DEBF0FBECDBF69017A0162
:100970008111D4C08FEF860F823008F06BC08AE0FF
:10098000E0E0F1E0DE01119601900D928A95E1F729
:100990008E010F5F1F4F4E012BE0820E911C412CE8
:1009A00044E2542E44EF642E712CF801A190B190D2
:1009B0008F01D501A70196010E9450089B01AC014F
:1009C000C301B2010E941F08CA01B9016150710937
:1009D0008109910961157105F1E08F079105E0F03A
:1009E0008016910611F762960FB6F894DEBF0FBE1F
:1009F000CDBFDF91CF911F910F91FF90EF90DF90CE
:100A0000CF90BF90AF909F908F907F906F905F90AE
:100A10004F903F902F900895A114B10421F3C50188
:100A200062960FB6F894DEBF0FBECDBFDF91CF91B7
:100A30001F910F91FF90EF90DF90CF90BF90AF90FC
:100A40009F908F907F906F905F904F903F902F90EE
:100A50000C940304633039F68EE0EAE0F1E0DE0145
:100A6000119601900D928A95E1F78E010F5F1F4F4D
:100A7000CE010F96988B8F8744244A94542C3201D0
:100A8000A12C34E0B32EF801908081800E5F1F4FBF
:100A9000392C212C910150E040E060E074E284EFB9
:100AA00090E00E941F08C216D306E406F50678F50A
:100AB000DA01C9018C199D09AE09BF098415950594
:100AC000A605B70520F42C013D01A92CB82C8F8573
:100AD000988908171907B9F6C50162960FB6F894F8
:100AE000DEBF0FBECDBFDF91CF911F910F91FF9061
:100AF000EF90DF90CF90BF90AF909F908F907F90BE
:100B00006F905F904F903F902F900C946404D701AA
:100B1000C601821B930BA40BB50BD0CF823009F01A
:100B200062CF633009F05FCF8EE0EAE0F1E0DE01F2
:100B3000119601900D928A95E1F78E010F5F1F4F7C
:100B40001E019FE0290E311C44244A94542C32018A
:100B5000A12C94E0B92EF801908081800E5F1F4F88
:100B60009A8A198A89899A899C0150E040E060E05C
:100B700074E284EF90E00E941F08C216D306E406D8
:100B8000F50698F4DA01C9018C199D09AE09BF096F
:100B900084159505A605B70520F42C013D01A92C67
:100BA000B82C02151305B9F697CFD701C601821BE1
:100BB000930BA40BB50BECCF982F842F91112AC067
:100BC000613089F4A0918600B0918700242F30E035
:100BD0000E9441082FEF30E040E050E00E941F08E3
:100BE000C9010C943E04623089F4A0918600B09152
:100BF0008700242F30E00E9441082FEF30E040E0D2
:100C000050E00E941F08C9010C944E04633041F467
:100C10000C949004923021F4633011F40C949304FA
:100C2000089581110AC08FEF860F823010F40C9462
:100C30005E04633021F40C9496048230D1F308955D
:100C4000F999FECF92BD81BDF89A80B50895F999C2
:100C5000FECF92BD81BD60BD8FB7F894FA9AF99A24
:100C60008FBF08951F93CF93DF93EC01162F0E943F
:100C70002006811739F0612FCE01DF91CF911F91AE
:100C80000C942706DF91CF911F910895CF92DF92A8
:100C9000EF92FF92CF93DF9300D0CDB7DEB7C12C98
:100CA000D12C7601C616D706E806F90649F40F904E
:100CB0000F90DF91CF91FF90EF90DF90CF9008954C
:100CC0001A82198229813A812C3D354030F02FEF6C
:100CD000C21AD20AE20AF20AE5CF000029813A815B
:100CE0002F5F3F4F3A832983EDCF41E050E061E031
:100CF00081E090E00E94550050E040E062E081E039
:100D000090E00E94550050E040E061E081E090E01A
:100D10000C949B00CF92DF92EF92FF92CF93DF93E0
:100D200041E050E061E081E090E00E949B0085E3BB
:100D30008A95F1F7000050E040E061E081E090E04A
:100D40000E949B00C0E1D7E262E081E090E00E9457
:100D5000DE00892BA1F0C12CD12C760162E081E06C
:100D600090E00E94DE000197A9F0C701B6012AE3D6
:100D700030E040E050E00E941F08C90104C0219704
:100D800019F787EE93E0DF91CF91FF90EF90DF901E
:100D9000CF9008958FEFC81AD80AE80AF80A80E2BF
:100DA000C8168EE4D806E104F10459F385E08A956B
:100DB000F1F70000D3CF0F931F930E94F703009128
:100DC0002B0110912C0120912D0130912E01601BDF
:100DD000710B820B930B6436710581059105D8F078
:100DE0000E94F70360932B0170932C0180932D01D7
:100DF00090932E010E948A060F9768F460E090E0BD
:100E000080E00E947C0766E970E080E090E01F913E
:100E10000F910C94CF021F910F91089567E873E131
:100E200080E490E00C940304CF93C82F653B08F056
:100E300064EB262F30E0ABEDB1E00E94410824EBDB
:100E400030E040E050E00E941F08C90183589F4FE6
:100E5000C11103C0CF910C943E04C13019F4CF915D
:100E60000C944E04CF91089541E050E064E082E09C
:100E700090E00E94550041E050E067E082E090E0A1
:100E80000E94550041E050E060E090E080E00E9468
:100E9000550041E050E064E090E080E00E945500A1
:100EA00050E040E064E082E090E00E949B0050E06F
:100EB00040E067E082E090E00E949B0050E040E06C
:100EC00060E090E080E00E949B0050E040E064E041
:100ED00090E080E00E949B0028EE33E040E050E08C
:100EE00061E080E00E949C0428EE33E040E050E0A6
:100EF00062E080E00C949C04CF939C01653608F07E
:100F000064E64FEF649FC001112464E670E00E9424
:100F10000B08C62F2230310509F44BC008F52130EB
:100F2000310579F150E040E064E082E090E00E9419
:100F30009B0050E040E067E082E090E00E949B0070
:100F400050E040E060E090E080E00E949B0050E0D4
:100F500040E064E090E080E00E949B00C0E045C07B
:100F60002330310509F44CC024303105D9F641E075
:100F700050E064E082E090E00E949B0050E040E09E
:100F800021C041E050E064E082E090E00E949B00DC
:100F900050E040E067E082E090E00E949B0041E08A
:100FA00050E060E090E080E00E949B0050E040E074
:100FB00017C050E040E064E082E090E00E949B00B7
:100FC00041E050E067E082E090E00E949B0050E04A
:100FD00040E060E090E080E00E949B0041E050E053
:100FE00064E090E080E00E949B004C2F61E080E094
:100FF0000E94DC054C2F62E080E0CF910C94DC0570
:1010000050E040E064E082E090E00E949B0041E01C
:1010100050E0C0CFFFCFAA1BBB1B51E107C0AA1FE6
:10102000BB1FA617B70710F0A61BB70B881F991F89
:101030005A95A9F780959095BC01CD010895A1E23C
:101040001A2EAA1BBB1BFD010DC0AA1FBB1FEE1F42
:10105000FF1FA217B307E407F50720F0A21BB30B8D
:10106000E40BF50B661F771F881F991F1A9469F709
:1010700060957095809590959B01AC01BD01CF0165
:101080000895A29FB001B39FC001A39F700D811D61
:101090001124911DB29F700D811D1124911D089581
:1010A0000E944108A59F900DB49F900DA49F800DB4
:0A10B000911D11240895F894FFCF5C
:1010BA0001000800400000010004010008002000AF
:0810CA00400080000001000459
:00000001FF
