:100000000C9434000C94AF050C94D8050C9451005A
:100010000C9451000C9451000C9451000C9451001C
:100020000C9451000C9451000C9451000C9451000C
:100030000C9451000C9451000C9451000C945100FC
:100040000C940E060C9451000C9451000C94510029
:100050000C9451000C9451000C9451000C945100DC
:100060000C94DD040C94510011241FBECFEFD8E096
:10007000DEBFCDBF11E0A0E0B1E0EEECF7E102C0E1
:1000800005900D92A232B107D9F721E0A2E2B1E0CA
:1000900001C01D92AF35B207E1F70E94DC0A0C9453
:1000A000E50B0C940000CF92DF92EF92FF928091CB
:1000B0003A018115E9F00E9431066B017C018091C3
:1000C00039018130D1F08230E9F1811111C068EC41
:1000D00070E080E090E00E940105C0923501D0926E
:1000E0003601E0923701F092380181E080933901C6
:1000F000FF90EF90DF90CF9008958091350190911F
:100100003601A0913701B09138019601A701281B53
:10011000390B4A0B5B0BC901DA0180399140A1050B
:10012000B10530F368EC70E080E090E00E940105DA
:10013000C0923501D0923601E0923701F092380139
:1001400082E0D4CF8091350190913601A0913701A2
:10015000B0913801C81AD90AEA0AFB0A40E9C41664
:1001600041E0D406E104F10418F268EC70E080E0AC
:1001700090E00E94010510923A0110923901B8CF27
:10018000EF92FF920F931F930E943106209130014E
:100190003091310140913201509133017B018C014A
:1001A000E21AF30A040B150B9701A8012C33310551
:1001B0004105510510F16093300170933101809336
:1001C00032019093330180E00E940C098031910547
:1001D00048F068E781E090E01F910F91FF90EF9069
:1001E0000C94810901970F9740F460E080E090E063
:1001F0000E94810980E3809300011F910F91FF907D
:10020000EF900895CF92DF92EF92FF920F931F939A
:10021000CF93DF930E94310600912C0110912D01A4
:1002200020912E0130912F016B017C01C01AD10A5F
:10023000E20AF30A860197010C3311052105310505
:10024000A0F160932C0170932D0180932E01909367
:100250002F0181E00E940C09EC0182E00E940C0950
:100260008C0180912B01823009F447C0D8F48111B0
:1002700025C068E781E090E00E9481090432110501
:10028000A0F081E0073E134081F080932B010E9493
:100290003106609327017093280180932901909380
:1002A0002A0103C0833009F44AC0DF91CF911F9126
:1002B0000F91FF90EF90DF90CF90089568E781E075
:1002C00090E00E9481090E9431060091270110915F
:1002D00028012091290130912A01601B710B820BAA
:1002E000930B6132734081059105F8F260E080E084
:1002F00090E00E94810982E0C8CF64EB84E090E046
:100300000E9481090E943106009127011091280165
:100310002091290130912A01601B710B820B930BF4
:100320006B3872408105910508F4BFCF60E080E032
:1003300090E00E94810983E080932B01B6CFCD30FD
:10034000D10568F068E782E090E0DF91CF911F91DE
:100350000F91FF90EF90DF90CF900C94810921973F
:100360002C9708F0A2CF60E080E090E00E94810925
:1003700010922B0180E38093000197CF0895CF93D3
:10038000DF9300D000D0CDB7DEB780E00E940C092B
:1003900089839A8382E00E940C098B839C838091DD
:1003A0002601823009F44AC0E8F4811128C068E7C8
:1003B00081E090E00E9481098B819C8184329105CB
:1003C000B8F0873E9340A1F081E0809326010E941F
:1003D000310660932201709323018093240190934E
:1003E000250106C0833009F44AC0843009F45DC099
:1003F0000F900F900F900F90DF91CF91089568E7C5
:1004000081E090E00E9481090E9431062091220142
:10041000309123014091240150912501621B730BFF
:10042000840B950B613971408105910508F360E0FB
:1004300080E090E00E94810982E0C7CF64EB84E015
:1004400090E00E9481090E943106209122013091A2
:1004500023014091240150912501621B730B840BF1
:10046000950B6B3872408105910510F260E080E0D9
:1004700090E00E94810983E080932601B9CF8981B1
:100480009A810D9758F068E781E090E00F900F9007
:100490000F900F90DF91CF910C94810960E080E084
:1004A00090E00E94810984E090CF64EB83E090E0CB
:1004B0000E9481090E94310620912201309123017E
:1004C0004091240150912501621B730B840B950B05
:1004D0006B3872408105910508F48ACF60E080E0B6
:1004E00090E00E9481091092260180E38093000130
:1004F0007FCF81309105D1F08230910561F1892B58
:10050000D9F581E090E0A0E0B0E004C0880F991F29
:10051000AA1FBB1F6A95D2F724B14130510519F4C7
:10052000822B84B9089580958223FBCF81E090E0EF
:10053000A0E0B0E004C0880F991FAA1FBB1F6A95F6
:10054000D2F727B14130510519F4822B87B90895AC
:1005500080958223FBCF81E090E0A0E0B0E004C072
:10056000880F991FAA1FBB1F6A95D2F72AB1413085
:10057000510519F4822B8AB9089580958223FBCF07
:1005800081309105C9F08230910551F1892BC1F577
:1005900081E090E0A0E0B0E004C0880F991FAA1F9E
:1005A000BB1F6A95D2F725B1452B19F0822B85B96F
:1005B000089580958223FBCF81E090E0A0E0B0E039
:1005C00004C0880F991FAA1FBB1F6A95D2F728B1D4
:1005D000452B19F0822B88B9089580958223FBCF93
:1005E00081E090E0A0E0B0E004C0880F991FAA1F4E
:1005F000BB1F6A95D2F72BB1452B19F0822B8BB913
:10060000089580958223FBCF8130910599F0823047
:10061000910591F0892B91F483B190E0A0E0B0E0D6
:1006200004C0B695A795979587956A95D2F781707E
:100630009927089586B1F1CF89B1EFCF80E090E09E
:10064000089581309105A1F08230910501F1892B47
:1006500061F525B181E090E0A0E0B0E004C0880F32
:10066000991FAA1FBB1F6A95D2F7822785B90895E3
:1006700028B181E090E0A0E0B0E004C0880F991FAD
:10068000AA1FBB1F6A95D2F7822788B908952BB19C
:1006900081E090E0A0E0B0E004C0880F991FAA1F9D
:1006A000BB1F6A95D2F782278BB9089580E48093A7
:1006B0007C0087E080937A0080917A008068809344
:1006C0007A0080917A0086FDFCCF8091780080913D
:1006D0007900089590917C008770907F892B80939A
:1006E0007C0080917A00806480937A0080917A0007
:1006F00086FDFCCF8091780020917900922F08959B
:100700009A0140E050E0E4E0220F331F441F551FE0
:10071000EA95D1F70E94AA0BC901DA0101979093DB
:10072000C5008093C40088E18093C10086E0809377
:10073000C2000895FC01680F792F711DE617F707B5
:1007400009F408958091C00085FFFCCF81918093CA
:10075000C600F4CFEF92FF920F931F93CF93DF93D6
:1007600000D000D000D0CDB7DEB78C010E9431069A
:1007700069837A838B839C8378011D821E820E9409
:10078000310629813A814B815C81621B730B840B9A
:10079000950B693E73408105910528F44D815E817A
:1007A00042335105A1F4ED81FE81E00FF11F10826B
:1007B0008D819E810F900F900F900F900F900F9052
:1007C000DF91CF911F910F91FF90EF90089580914D
:1007D000C00087FFD4CF8091C600F70181937F01CD
:1007E0000E94310669837A838B839C83F70182910F
:1007F0008A30C9F28D30B9F22D813E812F5F3F4F93
:100800002D833E83BCCF40E050E061E0CA010E94EE
:10081000790240E050E062E0CA010E94790240E0C3
:1008200050E065E0CA010E94790241E050E061E0D9
:1008300080E090E00E94C00241E050E062E080E091
:1008400090E00E94C00241E050E065E080E090E06E
:100850000C94C00261E080E090E00E9404039C01DF
:1008600081E0232B09F080E0089562E080E090E0D1
:100870000E9404039C0181E0232B09F080E008958D
:1008800065E080E090E00E9404039C0181E0232B5E
:1008900009F080E0089540E050E064E081E090E0FD
:1008A0000E94790240E050E064E081E090E00E9424
:1008B000C00240E050E065E081E090E00E947902F3
:1008C00040E050E065E081E090E00E94C00288E4F2
:1008D0008093B800E9EBF0E080818C7F80830895FD
:1008E00084EA8093BC0080E197E22091BC0027FF5E
:1008F00009C09091B900987F81E0983011F0903153
:1009000019F40895019789F780E0089584E98093A8
:10091000BC0008958093BB0084E88093BC0080E114
:1009200097E22091BC0027FF09C09091B900987F01
:1009300081E0983111F0983219F40895019789F700
:1009400080E00895CF93DF930F92CDB7DEB7898310
:1009500040E050E064E081E090E00E94790240E0F5
:1009600050E064E081E090E00E94C00240E050E08E
:1009700065E081E090E00E94790240E050E065E0AF
:1009800081E090E00E94C0028981880F8093BA00C4
:1009900085EC8093BC000F90DF91CF910895FC010E
:1009A00080913E01811541F0F89480913D01808352
:1009B00010923E01789481E008958F938FB78F93C2
:1009C0008091B900887F803839F48091BB00809392
:1009D0003D0181E080933E0185EC8093BC008F91C6
:1009E0008FBF8F91189541E050E062E082E090E087
:1009F0000E94790240E050E062E082E090E00C94D6
:100A0000C002CF93DF9300D000D0CDB7DEB76983AB
:100A10007A838B839C8341E050E062E082E090E047
:100A20000E94C00281E0809347010E9431066093DA
:100A3000430170934401809345019093460189815D
:100A40009A81AB81BC8180933F0190934001A09338
:100A50004101B09342010F900F900F900F90DF91E2
:100A6000CF91089580914701811521F10E943106AF
:100A7000209143013091440140914501509146013C
:100A8000621B730B840B950B20913F013091400149
:100A90004091410150914201621773078407950705
:100AA00048F040E050E062E082E090E00E94C00246
:100AB00010924701089541E050E060E080E090E04E
:100AC0000E94790240E050E060E0CA010C94C0024C
:100AD00041E050E060E080E090E00C94C00240E033
:100AE00050E060E0CA010C94C00260E080E090E059
:100AF0000C942103F894813088F4809169008C7FF4
:100B00008093690080916900862B809369004093EF
:100B10004A0150934B01E89A78940895E9F780913F
:100B20006900837F8093690080916900660F660F7A
:100B3000682B609369004093480150934901E99AFA
:100B4000EBCF813010F4E89A089509F4E99A0895FA
:100B5000813010F4E898089509F4E99808951F92F7
:100B60000F920FB60F9211242F933F934F935F93E1
:100B70006F937F938F939F93AF93BF93EF93FF9365
:100B8000E0914A01F0914B01309709F00995FF91EE
:100B9000EF91BF91AF919F918F917F916F915F91F5
:100BA0004F913F912F910F900FBE0F901F9018956E
:100BB0001F920F920FB60F9211242F933F934F93D2
:100BC0005F936F937F938F939F93AF93BF93EF93B5
:100BD000FF93E0914801F0914901309709F00995A0
:100BE000FF91EF91BF91AF919F918F917F916F9105
:100BF0005F914F913F912F910F900FBE0F901F90DB
:100C0000189584B5836084BD85B5836085BDEEE6A7
:100C1000F0E0808181608083789408951F921FB6F0
:100C20001F9211248F939F93AF93BF9380914C0198
:100C300090914D01A0914E01B0914F010196A11DDF
:100C4000B11D80934C0190934D01A0934E01B09340
:100C50004F01BF91AF919F918F911F901FBE1F9029
:100C600018952FB7F89460914C0170914D018091C7
:100C70004E0190914F012FBF089522EA20938000EA
:100C800028E1209381007093870060938600803470
:100C9000910531F148F48130910511F0089779F010
:100CA0008091810081600EC0811521E09207E1F002
:100CB00081159440A9F780918100856003C08091DF
:100CC00081008260809381001092890010928800D8
:100CD00010928B0010928A0084B1866084B90895C6
:100CE000809181008360EECF809181008460EACFA3
:100CF00020918600309187002817390720F48091D1
:100D000086009091870090938900809388000895D1
:100D100020918600309187002817390720F48091B0
:100D200086009091870090938B0080938A000895AD
:100D3000E1E8F0E08081887F8083089523EA2093B2
:100D4000B0009C0121503109AC01422753272417E0
:100D5000350798F40E94CC0B01978930910568F40F
:100D60008F5F9E4FFC0180818093B1001092B30091
:100D70001092B400239A539A089587E0F5CF809398
:100D8000B30008958093B4000895E1EBF0E0808112
:100D9000887F808308952F923F924F925F926F9247
:100DA0007F928F929F92AF92BF92CF92DF92EF92FB
:100DB000FF920F931F93CF93DF93CDB7DEB760976A
:100DC0000FB6F894DEBF0FBECDBF69017A01811165
:100DD000A4C08FEF860F823008F051C08AE0EAE0AD
:100DE000F1E0DE01119601900D928A95E1F78E01F6
:100DF0000F5F1F4F3E012BE0620E711C212C24E27D
:100E0000322E24EF422E512CF801A080B180D50162
:100E10009601A7010E94DA0B9B01AC01B101C2014E
:100E20000E94AA0BB901CA01615071098109910997
:100E30000097F1F00E5F1F4F6016710629F760965C
:100E40000FB6F894DEBF0FBECDBFDF91CF911F91DB
:100E50000F91FF90EF90DF90CF90BF90AF909F9059
:100E60008F907F906F905F904F903F902F9008955C
:100E7000A114B10421F3C5010E943D06E0CF633007
:100E8000F1F68EE0E4E1F1E0DE01119601900D92C1
:100E90008A95E1F78E010F5F1F4F4E012FE0820E02
:100EA000911C9FEF792E672C2301B12C84E0888B55
:100EB000F801A080F181FF870E5F1F4F3A2C212C93
:100EC000910140E050E060E074E284EF90E00E9425
:100ED000AA0BC216D306E406F506C0F4C901DA016E
:100EE0008C199D09AE09BF0984159505A605B7059E
:100EF00028F42C013D01BA2C2F85288B08151905E3
:100F0000B9F68B2D98890E949E0699CFC601D7010C
:100F1000821B930BA40BB50BE7CF823009F08FCF68
:100F2000663029F4569A84B5806884BD88CF6530D0
:100F300021F4559A84B58062F8CF633009F07FCFF1
:100F40008EE0E4E1F1E0DE01119601900D928A95C8
:100F5000E1F78E010F5F1F4F1E018FE0280E311C3D
:100F60008FEF782E672C2301B12CE4E0E88BF80199
:100F7000A080F181FF870E5F1F4F9A2C812C940176
:100F800040E050E060E074E284EF90E00E94AA0B41
:100F9000C216D306E406F506A0F4C901DA018C19DD
:100FA0009D09AE09BF0984159505A605B70528F466
:100FB0002C013D01BA2C2F85288B02151305B9F69B
:100FC000A0CFC601D701821B930BA40BB50BEBCFAF
:100FD000982F842F911128C0613081F4A091860050
:100FE000B0918700242F30E00E94870B2FEF40E064
:100FF00050E00E94AA0BC9010C947806623081F47B
:10100000A0918600B0918700242F30E00E94870BCA
:101010002FEF40E050E00E94AA0BC9010C94880613
:10102000633081F40C94BF06923061F4663011F4A1
:1010300047BD0895653011F448BD0895633011F43B
:101040000C94C206089581110AC08FEF860F82307A
:1010500010F40C949806633049F40C94C506823061
:1010600029F4663021F484B58F7784BD0895653006
:1010700091F784B58F7DF9CFF999FECF92BD81BDEF
:10108000F89A80B50895F999FECF92BD81BD60BDF3
:101090008FB7F894FA9AF99A8FBF0895CF93DF9398
:1010A00000D00F92CDB7DEB789839A836B830E94FD
:1010B0003C089B81891751F0692F89819A810F9093
:1010C0000F900F90DF91CF910C9443080F900F90E9
:1010D0000F90DF91CF910895CF92DF92EF92FF9220
:1010E000CF93DF9300D0CDB7DEB7E12CF12C6701B1
:1010F000C616D706E806F90649F40F900F90DF915F
:10110000CF91FF90EF90DF90CF9008951A821982CF
:1011100029813A812C3D354030F02FEFC21AD20A96
:10112000E20AF20AE5CF000029813A812F5F3F4FA2
:101130003A832983EDCFCF92DF92EF92FF92CF9344
:10114000DF930F92CDB7DEB78983E12CF12C698153
:1011500081E090E00E940403892BA1F0E12CF12CA6
:101160006701698181E090E00E940403019709F121
:10117000B601C7012AE330E040E050E00E94AA0B2C
:10118000C9010AC08FEFE81AF80A80E3E81685E77C
:10119000F80651F487EE93E00F90DF91CF91FF9026
:1011A000EF90DF90CF90089585E08A95F1F70000E9
:1011B000CECF8FE2C81685E7D806E104F10451F3DB
:1011C0008FEFC81AD80AE80AF80A85E08A95F1F77D
:1011D0000000C7CF41E050E061E0CA010E947902FF
:1011E00040E050E062E081E090E00E94790240E05F
:1011F00050E060E081E090E00E94790240E050E041
:1012000063E081E090E00E94790240E050E061E01C
:1012100081E090E00C94C002CF93C82F41E050E0F1
:1012200061E0CA010E94C00285E38A95F1F70000DF
:1012300040E050E061E081E090E00E94C00282E086
:10124000C13010F021F480E0CF910C949B08C230A3
:1012500011F483E0F9CF87EE93E0CF9108950E94D7
:10126000310620915001309151014091520150912D
:101270005301621B730B840B950B6436710581055A
:101280009105D0F00E943106609350017093510196
:10129000809352019093530180E00E940C090F97B4
:1012A00058F460E080E090E00E94810966E970E017
:1012B00080E090E00C940105089567E873E180E414
:1012C00090E00C943D06CF93C82F653B08F064EB8B
:1012D000262F30E0ABEDB1E00E94870B24EB40E01D
:1012E00050E00E94AA0BC90183589F4FC13018F4E7
:1012F000CF910C94780619F4CF910C948806CF9175
:101300000895CF93DF9300D00F92CDB7DEB78A83D5
:101310009B83653608F064E62FEF629FC0011124BD
:1013200064E670E00E94960B698340E065E082E02D
:101330000E94E80740E066E082E00E94E80740E0A3
:1013400063E080E00E94E80740E063E082E00E9402
:10135000E8078A819B818330910551F168F48130DF
:101360009105B9F0498166E0029761F00F900F9006
:101370000F90DF91CF9108958A819B81498165E02B
:101380000497A1F782E00E94E807498163E082E0C8
:1013900008C0498165E082E00E94E807498163E076
:1013A00080E00F900F900F90DF91CF910C94E807A1
:1013B000498166E0F0CF28EE33E040E050E065E0A0
:1013C00082E00E94CB0628EE33E040E050E066E089
:1013D00082E00E94CB0628EE33E040E050E063E07C
:1013E00080E00E94CB0628EE33E040E050E063E06E
:1013F00082E00E94CB0660E080E090E00C948109DE
:1014000010925D0110925E0110925401089581E0E6
:1014100080935D0110925E010E9431066093590134
:1014200070935A0180935B0190935C010895109230
:101430005D0110925E011092540140E050E063E0C3
:1014400082E090E00C94C00281E020915D01309137
:101450005E012230310509F080E00895CF92DF92DD
:10146000EF92FF92CF93DF9300D000D0CDB7DEB7DD
:1014700080915D0190915E01892B09F453C00E9417
:1014800031066B017C0180915D0190915E010197B5
:1014900009F053C08091590190915A01A0915B01CC
:1014A000B0915C019601A701281B390B4A0B5B0B1D
:1014B000C901DA0184369105A105B10598F1C09200
:1014C0005901D0925A01E0925B01F0925C0180E0F8
:1014D0000E940C0989839A8381E00E940C098B8306
:1014E0009C8382E00E940C0929813A8121503109B4
:1014F0002530310550F02B813C81215031092530B8
:10150000310518F001970597C0F482E080935D01E2
:1015100010925E01C0925501D0925601E09257019F
:10152000F09258010F900F900F900F90DF91CF9194
:10153000FF90EF90DF90CF90089580915D019091A2
:101540005E01029779F78091550190915601A09123
:101550005701B09158019601A701281B390B4A0B7E
:101560005B0BC901DA0186399105A105B105D0F2FD
:10157000C0925501D0925601E0925701F092580165
:101580008091540191E0811190E09093540141E0E9
:1015900050E0811511F040E050E063E082E090E01F
:1015A0000F900F900F900F90DF91CF91FF90EF90E1
:1015B000DF90CF900C94C0020F92CDB7DEB70E949F
:1015C00001060E94DB090E94F3040E945D090E944B
:1015D000EA080E94000A88E00E94A2046AE580E00E
:1015E0000E9463096AE581E00E946309198200E3B1
:1015F00011E00E9432050E942F090E9453000E94B0
:101600002E0A809100018133B9F40E94C000CE01FE
:1016100001960E94CF04811561F389818335B1F46D
:10162000009300011092340160E080E090E00E949D
:1016300081090E94170ADDCF823319F40E9402014A
:10164000E6CF843321F70E94BF01E1CF9FEC980FD2
:10165000943028F48093000110923401EACF009373
:10166000000160E080E090E00E9481098981853579
:1016700069F188F4833409F441C0893409F0B9CFA1
:1016800080913B01811599F16AE581E00E9463092F
:1016900010923B01AECF883509F0ABCF8091340179
:1016A00081110BC0109334010E94070A66E970E0B3
:1016B00080E090E00E9401059CCF109234010E94CE
:1016C000170A62E370E080E090E0F4CF80913C0183
:1016D000811539F06AE580E00E94630910923C01AF
:1016E00088CF60E00E94630910933C0182CF64EBD5
:1016F00081E00E94630910933B017BCF80913A0106
:10170000811177CF10933A011092390172CFA29FC5
:10171000B001B39FC001A39F700D811D1124911DC5
:10172000B29F700D811D1124911D0895AA1BBB1B32
:1017300051E107C0AA1FBB1FA617B70710F0A61BD1
:10174000B70B881F991F5A95A9F780959095BC01F2
:10175000CD010895A1E21A2EAA1BBB1BFD010DC0ED
:10176000AA1FBB1FEE1FFF1FA217B307E407F50751
:1017700020F0A21BB30BE40BF50B661F771F881F2D
:10178000991F1A9469F760957095809590959B01C3
:10179000AC01BD01CF010895AA2781110C94D40B8F
:1017A000A8E0892BD9F70895A3958695E8F78A2FA5
:1017B000992708950E94870BA59F900DB49F900DC7
:0E17C000A49F800D911D11240895F894FFCF71
:1017CE003001070702070304050601000800400068
:1017DE00000100040100080020004000800000010C
:0217EE000004F5
:00000001FF
