:100000000C9434000C94E5030C940E040C945100F1
:100010000C9451000C9451000C9451000C9451001C
:100020000C9451000C9451000C9451000C9451000C
:100030000C9451000C9451000C9451000C945100FC
:100040000C9444040C9451000C9451000C945100F5
:100050000C9451000C9451000C9451000C945100DC
:100060000C9428030C94510011241FBECFEFD8E04C
:10007000DEBFCDBF11E0A0E0B1E0E4E9F1E102C0F4
:1000800005900D92A232B107D9F721E0A2E2B1E0CA
:1000900001C01D92A134B207E1F70E9405080C943B
:1000A000C8080C940000CF92DF92EF92FF928091EB
:1000B00027018115E9F00E9467046B017C018091A2
:1000C00026018130D1F08230E9F1811111C068EC54
:1000D00070E080E090E00E944C03C0922201D09238
:1000E0002301E0922401F092250181E08093260112
:1000F000FF90EF90DF90CF90089580912201909132
:100100002301A0912401B09125019601A701281B8C
:10011000390B4A0B5B0BC901DA0180399140A1050B
:10012000B10530F368EC70E080E090E00E944C0391
:10013000C0922201D0922301E0922401F092250185
:1001400082E0D4CF8091220190912301A0912401DB
:10015000B0912501C81AD90AEA0AFB0A40E9C41677
:1001600041E0D406E104F10418F268EC70E080E0AC
:1001700090E00E944C031092270110922601B8CF04
:10018000089508950895089581309105D1F0823041
:10019000910561F1892BD9F581E090E0A0E0B0E014
:1001A00004C0880F991FAA1FBB1F6A95D2F724B1FC
:1001B0004130510519F4822B84B90895809582232A
:1001C000FBCF81E090E0A0E0B0E004C0880F991F71
:1001D000AA1FBB1F6A95D2F727B14130510519F408
:1001E000822B87B9089580958223FBCF81E090E030
:1001F000A0E0B0E004C0880F991FAA1FBB1F6A953A
:10020000D2F72AB14130510519F4822B8AB90895E9
:1002100080958223FBCF81309105C9F08230910512
:1002200051F1892BC1F581E090E0A0E0B0E004C07D
:10023000880F991FAA1FBB1F6A95D2F725B1452BBE
:1002400019F0822B85B9089580958223FBCF81E038
:1002500090E0A0E0B0E004C0880F991FAA1FBB1F68
:100260006A95D2F728B1452B19F0822B88B90895E9
:1002700080958223FBCF81E090E0A0E0B0E004C055
:10028000880F991FAA1FBB1F6A95D2F72BB1452B68
:1002900019F0822B8BB9089580958223FBCF813092
:1002A000910599F08230910591F0892B91F483B1F9
:1002B00090E0A0E0B0E004C0B695A795979587952B
:1002C0006A95D2F781709927089586B1F1CF89B1E7
:1002D000EFCF80E090E0089581309105A1F0823069
:1002E000910501F1892B61F525B181E090E0A0E055
:1002F000B0E004C0880F991FAA1FBB1F6A95D2F7F0
:10030000822785B9089528B181E090E0A0E0B0E0AF
:1003100004C0880F991FAA1FBB1F6A95D2F78227B6
:1003200088B908952BB181E090E0A0E0B0E004C06E
:10033000880F991FAA1FBB1F6A95D2F782278BB916
:10034000089580E480937C0087E080937A00809118
:100350007A00806880937A0080917A0086FDFCCFD5
:100360008091780080917900089590917C00877049
:10037000907F892B80937C0080917A0080648093A9
:100380007A0080917A0086FDFCCF809178002091E0
:100390007900922F08959A0140E050E0E4E0220FA6
:1003A000331F441F551FEA95D1F70E948D08C901DC
:1003B000DA0101979093C5008093C40088E180938F
:1003C000C10086E08093C2000895FC01680F792F78
:1003D000711DE617F70709F408958091C00085FFA5
:1003E000FCCF81918093C600F4CFEF92FF920F93E0
:1003F0001F93CF93DF9300D000D000D0CDB7DEB7EE
:100400008C010E94670469837A838B839C837801C3
:100410001D821E820E94670429813A814B815C8182
:10042000621B730B840B950B693E7340810591052C
:1004300028F44D815E8142335105A1F4ED81FE81A6
:10044000E00FF11F10828D819E810F900F900F9011
:100450000F900F900F90DF91CF911F910F91FF9010
:10046000EF9008958091C00087FFD4CF8091C6009F
:10047000F70181937F010E94670469837A838B83EC
:100480009C83F70182918A30C9F28D30B9F22D81B7
:100490003E812F5F3F4F2D833E83BCCF40E050E035
:1004A00061E0CA010E94C40040E050E062E0CA017D
:1004B0000E94C40040E050E065E0CA010E94C40010
:1004C00041E050E061E080E090E00E940B0141E0FB
:1004D00050E062E080E090E00E940B0141E050E0DB
:1004E00065E080E090E00C940B0161E080E090E03A
:1004F0000E944F019C0181E0232B09F080E00895C8
:1005000062E080E090E00E944F019C0181E0232B9B
:1005100009F080E0089565E080E090E00E944F01DE
:100520009C0181E0232B09F080E0089540E050E039
:1005300064E081E090E00E94C40040E050E064E0AC
:1005400081E090E00E940B0140E050E065E081E036
:1005500090E00E94C40040E050E065E081E090E05F
:100560000E940B0188E48093B800E9EBF0E0808101
:100570008C7F8083089584EA8093BC0080E197E2B9
:100580002091BC0027FF09C09091B900987F81E0BD
:10059000983011F0903119F40895019789F780E0AF
:1005A000089584E98093BC0008958093BB0084E89B
:1005B0008093BC0080E197E22091BC0027FF09C036
:1005C0009091B900987F81E0983111F0983219F438
:1005D0000895019789F780E00895CF93DF930F92F4
:1005E000CDB7DEB7898340E050E064E081E090E081
:1005F0000E94C40040E050E064E081E090E00E948E
:100600000B0140E050E065E081E090E00E94C40012
:1006100040E050E065E081E090E00E940B018981BC
:10062000880F8093BA0085EC8093BC000F90DF9117
:10063000CF910895FC0180912B01811541F0F89430
:1006400080912A01808310922B01789481E0089593
:100650008F938FB78F938091B900887F803839F45A
:100660008091BB0080932A0181E080932B0185EC6F
:100670008093BC008F918FBF8F91189541E050E01F
:1006800064E082E090E00E94C40040E050E064E05A
:1006900082E090E00C940B0160932C0170932D018B
:1006A00080932E0190932F010E9467046093300184
:1006B00070933101809332019093330181E08093F4
:1006C000340141E050E064E082E090E00C940B01E2
:1006D00080913401811521F10E946704209130013D
:1006E000309131014091320150913301621B730B03
:1006F000840B950B20912C0130912D0140912E01FE
:1007000050912F01621773078407950748F040E066
:1007100050E064E082E090E00E940B01109234010E
:10072000089541E050E060E080E090E00E94C40065
:1007300040E050E060E0CA010C940B0141E050E061
:1007400060E080E090E00C940B0140E050E060E05D
:10075000CA010C940B0160E080E090E00C946C0105
:10076000F894813088F4809169008C7F80936900CF
:1007700080916900862B80936900409337015093E4
:100780003801E89A78940895E9F780916900837FA9
:100790008093690080916900660F660F682B6093F3
:1007A00069004093350150933601E99AEBCF8130CF
:1007B00010F4E89A089509F4E99A0895813010F444
:1007C000E898089509F4E99808951F920F920FB6DA
:1007D0000F9211242F933F934F935F936F937F93C7
:1007E0008F939F93AF93BF93EF93FF93E091370164
:1007F000F0913801309709F00995FF91EF91BF9181
:10080000AF919F918F917F916F915F914F913F91A8
:100810002F910F900FBE0F901F9018951F920F925F
:100820000FB60F9211242F933F934F935F936F93C3
:100830007F938F939F93AF93BF93EF93FF93E09139
:100840003501F0913601309709F00995FF91EF914C
:10085000BF91AF919F918F917F916F915F914F91D8
:100860003F912F910F900FBE0F901F90189584B558
:10087000836084BD85B5836085BDEEE6F0E0808150
:1008800081608083789408951F921FB61F9211246F
:100890008F939F93AF93BF938091390190913A01C9
:1008A000A0913B01B0913C010196A11DB11D809327
:1008B000390190933A01A0933B01B0933C01BF9161
:1008C000AF919F918F911F901FBE1F9018952FB7CA
:1008D000F8946091390170913A0180913B019091B7
:1008E0003C012FBF089522EA2093800028E1209345
:1008F000810070938700609386008034910531F108
:1009000048F48130910511F0089779F080918100C9
:1009100081600EC0811521E09207E1F081159440BD
:10092000A9F780918100856003C080918100826079
:1009300080938100109289001092880010928B00A1
:1009400010928A0084B1866084B9089580918100F4
:100950008360EECF809181008460EACF2091860091
:10096000309187002817390720F4809186009091F4
:1009700087009093890080938800089520918600D5
:10098000309187002817390720F4809186009091D4
:10099000870090938B0080938A000895E1E8F0E04F
:1009A0008081887F8083089523EA2093B0009C0192
:1009B00021503109AC01422753272417350798F4F9
:1009C0000E94AF0801978930910568F480509F4FCD
:1009D000FC0180818093B1001092B3001092B400AA
:1009E000239A539A089587E0F5CF8093B300089532
:1009F0008093B4000895E1EBF0E08081887F8083EC
:100A000008952F923F924F925F926F927F928F92B2
:100A10009F92AF92BF92CF92DF92EF92FF920F938D
:100A20001F93CF93DF93CDB7DEB760970FB6F894DF
:100A3000DEBF0FBECDBF69017A018111A4C08FEF67
:100A4000860F823008F051C08AE0E9E0F1E0DE0173
:100A5000119601900D928A95E1F78E010F5F1F4F5D
:100A60003E012BE0620E711C212C24E2322E24EF79
:100A7000422E512CF801A080B180D5019601A7012A
:100A80000E94BD089B01AC01B101C2010E948D080A
:100A9000B901CA0161507109810991090097F1F00A
:100AA0000E5F1F4F6016710629F760960FB6F89417
:100AB000DEBF0FBECDBFDF91CF911F910F91FF9091
:100AC000EF90DF90CF90BF90AF909F908F907F90EE
:100AD0006F905F904F903F902F900895A114B104B4
:100AE00021F3C5010E947304E0CF6330F1F68EE07C
:100AF000E3E1F1E0DE01119601900D928A95E1F7B4
:100B00008E010F5F1F4F4E012FE0820E911C9FEF51
:100B1000792E672C2301B12C84E0888BF801A0800A
:100B2000F181FF870E5F1F4F3A2C212C910140E08D
:100B300050E060E074E284EF90E00E948D08C216FD
:100B4000D306E406F506C0F4C901DA018C199D0943
:100B5000AE09BF0984159505A605B70528F42C0133
:100B60003D01BA2C2F85288B08151905B9F68B2D58
:100B700098890E94D40499CFC601D701821B930B98
:100B8000A40BB50BE7CF823009F08FCF663029F484
:100B9000569A84B5806884BD88CF653021F4559A13
:100BA00084B58062F8CF633009F07FCF8EE0E3E157
:100BB000F1E0DE01119601900D928A95E1F78E0128
:100BC0000F5F1F4F1E018FE0280E311C8FEF782E14
:100BD000672C2301B12CE4E0E88BF801A080F181BF
:100BE000FF870E5F1F4F9A2C812C940140E050E04C
:100BF00060E074E284EF90E00E948D08C216D30694
:100C0000E406F506A0F4C901DA018C199D09AE09C4
:100C1000BF0984159505A605B70528F42C013D01EB
:100C2000BA2C2F85288B02151305B9F6A0CFC60163
:100C3000D701821B930BA40BB50BEBCF982F842FFE
:100C4000911128C0613081F4A0918600B091870095
:100C5000242F30E00E946A082FEF40E050E00E940D
:100C60008D08C9010C94AE04623081F4A091860015
:100C7000B0918700242F30E00E946A082FEF40E0F7
:100C800050E00E948D08C9010C94BE04633081F4C9
:100C90000C94F504923061F4663011F447BD089568
:100CA000653011F448BD0895633011F40C94F804D4
:100CB000089581110AC08FEF860F823010F40C94D2
:100CC000CE04633049F40C94FB04823029F466307E
:100CD00021F484B58F7784BD0895653091F784B58C
:100CE0008F7DF9CFF999FECF92BD81BDF89A80B57D
:100CF0000895F999FECF92BD81BD60BD8FB7F8947C
:100D0000FA9AF99A8FBF0895CF93DF9300D00F928C
:100D1000CDB7DEB789839A836B830E9472069B816D
:100D2000891751F0692F89819A810F900F900F9048
:100D3000DF91CF910C9479060F900F900F90DF9177
:100D4000CF910895CF92DF92EF92FF92CF93DF93EE
:100D500000D0CDB7DEB7E12CF12C6701C616D7065F
:100D6000E806F90649F40F900F90DF91CF91FF90BC
:100D7000EF90DF90CF9008951A82198229813A81ED
:100D80002C3D354030F02FEFC21AD20AE20AF20AA7
:100D9000E5CF000029813A812F5F3F4F3A832983B5
:100DA000EDCF41E050E061E0CA010E94C40040E0A4
:100DB00050E062E081E090E00E94C40040E050E03A
:100DC00061E081E090E00C940B01CF92DF92EF9212
:100DD000FF9241E050E061E0CA010E940B0185E30F
:100DE0008A95F1F7000040E050E061E081E090E09A
:100DF0000E940B0180E1E82E87E2F82E62E081E09C
:100E000090E00E944F01892BA1F0E12CF12C6701A9
:100E100062E081E090E00E944F010197A9F0B601E5
:100E2000C7012AE330E040E050E00E948D08C9018C
:100E300006C081E0E81AF10809F787EE93E0FF9019
:100E4000EF90DF90CF9008958FE1C8168EE4D8061A
:100E5000E104F10491F38FEFC81AD80AE80AF80AFE
:100E600085E08A95F1F70000D3CF0E9467042091B6
:100E70003D0130913E0140913F0150914001621B84
:100E8000730B840B950B6436710581059105C8F0D1
:100E90000E94670460933D0170933E0180933F017F
:100EA000909340010E94E5060F9758F460E080E0BF
:100EB00090E00E94860766E970E080E090E00C9484
:100EC0004C03089567E873E180E490E00C947304A8
:100ED000CF93C82F653B08F064EB262F30E0ABEDD5
:100EE000B1E00E946A0824EB40E050E00E948D08C7
:100EF000C90183589F4FC13018F4CF910C94AE04B0
:100F000019F4CF910C94BE04CF910895CF93DF9341
:100F100000D00F92CDB7DEB78A839B83653608F089
:100F200064E62FEF629FC001112464E670E00E9426
:100F30007908698340E065E082E00E941E0640E097
:100F400066E082E00E941E0640E063E080E00E94CE
:100F50001E0640E063E082E00E941E068A819B81BB
:100F60008330910551F168F481309105B9F04981E0
:100F700066E0029761F00F900F900F90DF91CF9194
:100F800008958A819B81498165E00497A1F782E0F9
:100F90000E941E06498163E082E008C0498165E045
:100FA00082E00E941E06498163E080E00F900F906E
:100FB0000F90DF91CF910C941E06498166E0F0CF2F
:100FC00028EE33E040E050E065E082E00E94010559
:100FD00028EE33E040E050E066E082E00E94010548
:100FE00028EE33E040E050E063E080E00E9401053D
:100FF00028EE33E040E050E063E082E00E9401052B
:1010000060E080E090E00C9486070F92CDB7DEB7E9
:101010000E9437040E94E0070E943E030E9462077C
:101020000E94D10688E00E94ED0260E081E00E940B
:10103000680760E080E00E946807198211E00E9462
:1010400068030E9435070E945300CE0101960E945A
:101050001A038115A1F389819FEC980F943078F3DE
:10106000833531F460E080E090E00E948607E7CFAE
:101070008934F9F0853559F0833409F780912701D7
:101080008111DDCF1093270110922601D8CF8091D6
:101090002901811539F060E081E00E946807109213
:1010A0002901CDCF6AE581E00E94680710932901EC
:1010B000C6CF80912801811539F060E080E00E9460
:1010C000680710922801BBCF6AE50E946807109359
:1010D0002801B5CFA29FB001B39FC001A39F700D9F
:1010E000811D1124911DB29F700D811D1124911D30
:1010F0000895AA1BBB1B51E107C0AA1FBB1FA6175F
:10110000B70710F0A61BB70B881F991F5A95A9F7B0
:1011100080959095BC01CD010895A1E21A2EAA1BDD
:10112000BB1BFD010DC0AA1FBB1FEE1FFF1FA21797
:10113000B307E407F50720F0A21BB30BE40BF50B94
:10114000661F771F881F991F1A9469F7609570951D
:10115000809590959B01AC01BD01CF010895AA2710
:1011600081110C94B708A8E0892BD9F70895A395AD
:101170008695E8F78A2F992708950E946A08A59F07
:10118000900DB49F900DA49F800D911D1124089582
:04119000F894FFCF01
:1011940001070702070304050601000800400000D8
:1011A400010004010008002000400080000001004C
:0211B400040035
:00000001FF
