:100000000C9434000C94AA040C94D3040C94510066
:100010000C9451000C9451000C9451000C9451001C
:100020000C9451000C9451000C9451000C9451000C
:100030000C9451000C9451000C9451000C945100FC
:100040000C9409050C9451000C9451000C9451002F
:100050000C9451000C9451000C9451000C945100DC
:100060000C94DF030C94510011241FBECFEFD8E095
:10007000DEBFCDBF11E0A0E0B1E0E0E3F5E102C0FA
:1000800005900D92AA31B107D9F721E0AAE1B1E0BC
:1000900001C01D92A734B207E1F70E94FB090C943E
:1000A000960A0C940000CF92DF92EF92FF9280911B
:1000B0002401882359F00E942E056B017C01809158
:1000C00023018130D1F038F08230E1F1FF90EF90E0
:1000D000DF90CF90089568EC70E080E090E00E949F
:1000E0000804C0921F01D0922001E0922101F092F9
:1000F000220181E080932301E9CF80911F0190913B
:100100002001A0912101B0912201A7019601281B95
:10011000390B4A0B5B0BDA01C90180399140A1050B
:10012000B105A0F268EC70E080E090E00E94080465
:10013000C0921F01D0922001E0922101F092220191
:1001400082E0D8CF80911F0190912001A0912101E0
:10015000B0912201C81AD90AEA0AFB0A40E9C4167A
:1001600041E0D406E104F10408F4B0CF68EC70E09B
:1001700080E090E00E940804109224011092230174
:10018000A5CF80E00E9433089C012150310920391D
:10019000314078F4409728F066E981E090E00C94D3
:1001A000B50860E090E080E00E94B50880E38093AD
:1001B00000010895089508950F931F93CF93DF933F
:1001C00080E00E9433088C0182E00E943308EC0139
:1001D00080911E01823009F46CC050F4882381F1B3
:1001E000813009F446C0DF91CF911F910F9108959E
:1001F000833009F480C08430B1F764EB83E090E091
:100200000E94B5080E942E0500911A0110911B0151
:1002100020911C0130911D01601B710B820B930B0F
:100220006B38724081059105F0F260E090E080E06B
:100230000E94B50810921E0180E380930001D3CF85
:1002400068E781E090E00E94B508C432D10558F219
:1002500081E0C73ED34039F280931E010E942E05F3
:1002600060931A0170931B0180931C0190931D01F0
:10027000BACF68E781E090E00E94B5080E942E05A1
:1002800000911A0110911B0120911C0130911D0158
:10029000601B710B820B930B6139714081059105D5
:1002A00008F4A1CF60E090E080E00E94B50882E011
:1002B000D3CF64EB84E090E00E94B5080E942E0545
:1002C00000911A0110911B0120911C0130911D0118
:1002D000601B710B820B930B6B387240810591058B
:1002E00008F481CF60E090E080E00E94B50883E0F0
:1002F00080931E0178CF0D30110548F068E781E04A
:1003000090E0DF91CF911F910F910C94B50860E0C0
:1003100090E080E00E94B50884E09ECF8130910596
:10032000C9F018F0029759F1089581E090E0A0E03B
:10033000B0E004C0880F991FAA1FBB1F6A95D2F7AF
:1003400024B14130510519F4822B84B90895809568
:100350008223FBCF81E090E0A0E0B0E004C0880FF2
:10036000991FAA1FBB1F6A95D2F727B141305105CB
:1003700019F4822B87B9089580958223FBCF81E001
:1003800090E0A0E0B0E004C0880F991FAA1FBB1F37
:100390006A95D2F72AB14130510519F4822B8AB9F6
:1003A000089580958223FBCF81309105C1F018F02C
:1003B000029749F1089581E090E0A0E0B0E004C028
:1003C000880F991FAA1FBB1F6A95D2F725B1452B2D
:1003D00019F0822B85B9089580958223FBCF81E0A7
:1003E00090E0A0E0B0E004C0880F991FAA1FBB1FD7
:1003F0006A95D2F728B1452B19F0822B88B9089558
:1004000080958223FBCF81E090E0A0E0B0E004C0C3
:10041000880F991FAA1FBB1F6A95D2F72BB1452BD6
:1004200019F0822B8BB9089580958223FBCF813000
:100430009105A1F028F0029799F090E080E00895EE
:1004400083B190E0B0E0A0E004C0B695A795979581
:1004500087956A95D2F7817090E0089586B1F1CFC3
:1004600089B1EFCF8130910599F018F00297F9F03A
:10047000089535B181E090E0A0E0B0E004C0880FBD
:10048000991FAA1FBB1F6A95D2F7832785B90895C4
:1004900038B181E090E0A0E0B0E004C0880F991F7F
:1004A000AA1FBB1F6A95D2F7832788B908953BB16D
:1004B00081E090E0A0E0B0E004C0880F991FAA1F7F
:1004C000BB1F6A95D2F783278BB9089580E4809388
:1004D0007C0087E080937A0080917A008068809326
:1004E0007A0080917A0086FDFCCF8091780080911F
:1004F0007900089590917C00907F8770982B90935D
:100500007C0080917A00806480937A0080917A00E8
:1005100086FDFCCF809178009091790008959A0132
:1005200050E040E0E4E0220F331F441F551FEA95DE
:10053000D1F70E945A0ABA01A90141505109610933
:100540007109BB27A72F962F852F8093C500409355
:10055000C40088E18093C10086E08093C2000895C2
:10056000FC0170E09F01281B390B261737070CF0A0
:1005700008952091C00025FFFCCF21912093C60053
:10058000F1CF8F929F92AF92BF92EF92FF920F9313
:100590001F93CF93DF938C010E942E054B015C01CA
:1005A0007801D0E0C0E00E942E05681979098A0917
:1005B0009B09693E73408105910518F4C233D1054A
:1005C00081F4F801EC0FFD1F1082CE01DF91CF9175
:1005D0001F910F91FF90EF90BF90AF909F908F90E1
:1005E00008958091C00087FFDECF8091C600F7019B
:1005F00081937F010E942E054B015C01F701319729
:1006000080818A30F1F28D30E1F22196CCCF50E03A
:1006100040E061E090E080E00E948E0150E040E028
:1006200062E090E080E00E948E0150E040E065E0F2
:1006300090E080E00E948E0141E050E061E090E0B7
:1006400080E00E94D40141E050E062E090E080E070
:100650000E94D40141E050E065E090E080E00C941D
:10066000D40161E090E080E00E94170221E0892B34
:1006700009F020E0822F089562E090E080E00E947F
:10068000170221E0892B09F020E0822F089565E010
:1006900090E080E00E94170221E0892B09F020E021
:1006A000822F089550E040E064E081E090E00E94F5
:1006B0008E0150E040E064E081E090E00E94D401CF
:1006C00050E040E065E081E090E00E948E0150E063
:1006D00040E065E081E090E00E94D40188E48093EE
:1006E000B800E9EBF0E080818C7F8083089584EA94
:1006F0008093BC0080E197E22091BC0027FF09C0F5
:100700009091B900987F81E0983011F0903119F400
:100710000895019789F780E0089584E98093BC00EB
:1007200008958093BB0084E88093BC0080E197E249
:100730002091BC0027FF09C09091B900987F81E00B
:10074000983111F0983219F40895019789F780E0F3
:100750000895CF93C82F50E040E064E081E090E03E
:100760000E948E0150E040E064E081E090E00E9451
:10077000D40150E040E065E081E090E00E948E010D
:1007800050E040E065E081E090E00E94D401CC0FB1
:10079000C093BA0085EC8093BC00CF91089520915E
:1007A0002601222351F0F89420912501FC01208399
:1007B00010922601789481E0089580E008951F92B8
:1007C0000F920FB60F9211248F938091B900887FFA
:1007D000803839F48091BB008093250181E08093BB
:1007E000260185EC8093BC008F910F900FBE0F9077
:1007F0001F90189541E050E064E082E090E00E9494
:100800008E0150E040E064E082E090E00C94D4017E
:1008100060932701709328018093290190932A0106
:100820000E942E0560932B0170932C0180932D0163
:1008300090932E0181E080932F0141E050E064E02D
:1008400082E090E00C94D4010F931F9380912F01CC
:10085000882321F10E942E0500912B0110912C017B
:1008600020912D0130912E01601B710B820B930B97
:1008700000912701109128012091290130912A012E
:10088000601771078207930748F050E040E064E08A
:1008900082E090E00E94D40110922F011F910F91ED
:1008A000089541E050E060E090E080E00E948E0119
:1008B00050E040E060E090E080E00C94D40141E042
:1008C00050E060E090E080E00C94D40150E040E023
:1008D00060E090E080E00C94D40160E090E080E083
:1008E0000C943202F894811111C0809169008C7FC0
:1008F0008093690080916900682B60936900509330
:10090000330140933201E89A789408958130E1F7F9
:1009100080916900837F8093690080916900660FF0
:10092000660F682B6093690050933101409330014A
:10093000E99AEACF811102C0E89A0895813009F45A
:10094000E99A0895811102C0E8980895813009F468
:10095000E99808951F920F920FB60F9211242F93CA
:100960003F934F935F936F937F938F939F93AF9337
:10097000BF93EF93FF93E0913201F09133013097F1
:1009800009F00995FF91EF91BF91AF919F918F91E0
:100990007F916F915F914F913F912F910F900FBE7B
:1009A0000F901F9018951F920F920FB60F9211245F
:1009B0002F933F934F935F936F937F938F939F9367
:1009C000AF93BF93EF93FF93E0913001F09131012A
:1009D000309709F00995FF91EF91BF91AF919F91E9
:1009E0008F917F916F915F914F913F912F910F90D8
:1009F0000FBE0F901F90189584B5836084BD85B598
:100A0000836085BDEEE6F0E080818160808378942C
:100A100008951F920F920FB60F9211248F939F93F8
:100A2000AF93BF938091340190913501A09136012D
:100A3000B09137010196A11DB11D809334019093AF
:100A40003501A0933601B0933701BF91AF919F91CB
:100A50008F910F900FBE0F901F9018952FB7F8949D
:100A60006091340170913501809136019091370188
:100A70002FBF089522EA2093800028E1209381006F
:100A800070938700609386008034910531F148F4BB
:100A90008130910511F0089779F080918100816093
:100AA0000EC0811521E09207E1F081159440A9F76D
:100AB00080918100856003C0809181008260809375
:100AC0008100109289001092880010928B00109281
:100AD0008A0084B1866084B9089580918100836022
:100AE000EECF809181008460EACF20918600309122
:100AF00087002817390720F480918600909187009D
:100B00009093890080938800089520918600309109
:100B100087002817390720F480918600909187007C
:100B200090938B0080938A000895E1E8F0E0808143
:100B3000887F8083089523EA2093B0008032910556
:100B4000F1F038F48130910501F1089771F087E0F8
:100B50000DC080389105A9F0811521E0920799F028
:100B600080349105A1F784E001C082E08093B10058
:100B70001092B3001092B400239A539A089583E020
:100B8000F5CF85E0F3CF86E0F1CF81E0EFCF809322
:100B9000B30008958093B4000895E1EBF0E0808104
:100BA000887F808308952F923F924F925F926F9239
:100BB0007F928F929F92AF92BF92CF92DF92EF92ED
:100BC000FF920F931F93CF93DF93CDB7DEB762975A
:100BD0000FB6F894DEBF0FBECDBF69017A01811157
:100BE000D4C08FEF860F823008F06BC08AE0E1E05E
:100BF000F1E0DE01119601900D928A95E1F78E01E8
:100C00000F5F1F4F4E012BE0820E911C412C44E2DE
:100C1000542E44EF642E712CF801A190B1908F01F5
:100C2000D501A70196010E948B0A9B01AC01C3016B
:100C3000B2010E945A0ACA01B901615071098109C1
:100C4000910961157105F1E08F079105E0F08016BB
:100C5000910611F762960FB6F894DEBF0FBECDBFB6
:100C6000DF91CF911F910F91FF90EF90DF90CF9088
:100C7000BF90AF909F908F907F906F905F904F90BC
:100C80003F902F900895A114B10421F3C5016296FD
:100C90000FB6F894DEBF0FBECDBFDF91CF911F918D
:100CA0000F91FF90EF90DF90CF90BF90AF909F900B
:100CB0008F907F906F905F904F903F902F900C940B
:100CC0003A05633039F68EE0EBE0F1E0DE01119693
:100CD00001900D928A95E1F78E010F5F1F4FCE01B3
:100CE0000F96988B8F8744244A94542C3201A12C60
:100CF00034E0B32EF801908081800E5F1F4F392CB5
:100D0000212C910150E040E060E074E284EF90E03B
:100D10000E945A0AC216D306E406F50678F5DA01EF
:100D2000C9018C199D09AE09BF0984159505A60551
:100D3000B70520F42C013D01A92CB82C8F8598898A
:100D400008171907B9F6C50162960FB6F894DEBF09
:100D50000FBECDBFDF91CF911F910F91FF90EF900C
:100D6000DF90CF90BF90AF909F908F907F906F90CB
:100D70005F904F903F902F900C949B05D701C60138
:100D8000821B930BA40BB50BD0CF823009F062CF3E
:100D9000663029F4569A84B5806884BD5BCF65308F
:100DA00021F4559A84B58062F8CF633009F052CFB0
:100DB0008EE0EBE0F1E0DE01119601900D928A9554
:100DC000E1F78E010F5F1F4F1E019FE0290E311CBE
:100DD00044244A94542C3201A12C94E0B92EF801F9
:100DE000908081800E5F1F4F9A8A198A89899A891B
:100DF0009C0150E040E060E074E284EF90E00E94EB
:100E00005A0AC216D306E406F50698F4DA01C901B7
:100E10008C199D09AE09BF0984159505A605B7056E
:100E200020F42C013D01A92CB82C02151305B9F6AC
:100E30008ACFD701C601821B930BA40BB50BECCF55
:100E4000982F842F91112AC0613089F4A0918600D7
:100E5000B0918700242F30E00E947C0A2FEF30E011
:100E600040E050E00E945A0AC9010C9475056230B6
:100E700089F4A0918600B0918700242F30E00E9471
:100E80007C0A2FEF30E040E050E00E945A0AC9018E
:100E90000C948505633081F40C94C705923061F49D
:100EA000663011F447BD0895653011F448BD0895CA
:100EB000633011F40C94CA05089581110AC08FEFB4
:100EC000860F823010F40C949505633049F40C942D
:100ED000CD05823029F4663021F484B58F7784BD46
:100EE0000895653091F784B58F7DF9CFF999FECFDC
:100EF00092BD81BDF89A80B50895F999FECF92BD53
:100F000081BD60BD8FB7F894FA9AF99A8FBF0895A2
:100F10001F93CF93DF93EC01162F0E947607811762
:100F200039F0612FCE01DF91CF911F910C947D0795
:100F3000DF91CF911F910895CF92DF92EF92FF92B0
:100F4000CF93DF9300D0CDB7DEB7C12CD12C760183
:100F5000C616D706E806F90649F40F900F90DF9100
:100F6000CF91FF90EF90DF90CF9008951A82198271
:100F700029813A812C3D354030F02FEFC21AD20A38
:100F8000E20AF20AE5CF000029813A812F5F3F4F44
:100F90003A832983EDCFBF92CF92DF92EF92FF92F7
:100FA0000F931F93CF93DF938C01B62EC0E1D7E24E
:100FB0006B2DC8010E941702892B99F0C12CD12CEE
:100FC00076016B2DC8010E9417020197C1F0C7017D
:100FD000B6012AE330E040E050E00E945A0AC9011D
:100FE00004C0219729F787EE93E0DF91CF911F91FD
:100FF0000F91FF90EF90DF90CF90BF9008958FEF0B
:10100000C81AD80AE80AF80A80E2C8168EE4D80698
:10101000E104F10441F385E08A95F1F70000D1CFB6
:1010200041E050E064E090E080E00E948E0150E0FA
:1010300040E065E090E080E00E948E0150E040E0FA
:1010400060E081E090E00E948E0150E040E063E0CB
:1010500081E090E00E948E0150E040E064E090E08A
:1010600080E00C94D401CF93C82F41E050E064E0BD
:1010700090E080E00E94D40185E38A95F1F70000BA
:1010800050E040E064E090E080E00E94D40165E040
:1010900090E080E0CC2341F060E0C13019F0C23034
:1010A00031F463E081E090E0CF910C94CB0787EEC0
:1010B00093E0CF9108950F931F930E942E05009106
:1010C00038011091390120913A0130913B01601BA8
:1010D000710B820B930B6436710581059105E0F06D
:1010E0000E942E05609338017093390180933A0174
:1010F00090933B0180E00E9433080F9768F460E012
:1011000090E080E00E94B50866E970E080E090E041
:101110001F910F910C9408041F910F91089567E897
:1011200073E180E490E00C943A05CF93C82F653BBF
:1011300008F064EB262F30E0ABEDB1E00E947C0AB2
:1011400024EB30E040E050E00E945A0AC901835885
:101150009F4FC11103C0CF910C947505C13019F494
:10116000CF910C948505CF9108950F931F93CF9342
:101170008C01653608F064E62FEF629FC0011124F0
:1011800064E670E00E94460AC62F40E065E082E017
:101190000E94200740E066E082E00E94200740E0D5
:1011A00063E080E00E94200740E063E082E00E946C
:1011B000200702301105C9F048F44C2F65E00130DA
:1011C0001105C1F0CF911F910F91089503301105C2
:1011D00079F04C2F65E004301105A1F782E00E9400
:1011E00020074C2F63E082E00BC04C2F66E0F6CF67
:1011F0004C2F66E082E00E9420074C2F63E080E0E5
:10120000CF911F910F910C94200728EE33E040E01E
:1012100050E065E082E00E94D30528EE33E040E034
:1012200050E066E082E00E94D30528EE33E040E023
:1012300050E063E080E00E94D30528EE33E040E018
:1012400050E063E082E00E94D30560E090E080E03F
:101250000C94B508109246011092450110923C0181
:10126000089581E090E090934601809345010E94AB
:101270002E05609341017093420180934301909346
:1012800044010895109246011092450110923C01CC
:1012900050E040E063E082E090E00C94D40181E013
:1012A00020914501309146012230310509F080E05E
:1012B0000895CF92DF92EF92FF920F931F93CF93F7
:1012C000DF938091450190914601892B09F48AC0F2
:1012D0000E942E056B017C01809145019091460191
:1012E000019709F042C08091410190914201A09183
:1012F0004301B0914401A7019601281B390B4A0B09
:101300005B0BDA01C90184369105A105B10508F42A
:1013100069C0C0924101D0924201E0924301F09233
:10132000440180E00E9433088C0181E00E94330870
:10133000EC0182E00E9433080150110905301105CB
:1013400030F02197259718F00197059770F482E007
:1013500090E09093460180934501C0923D01D09268
:101360003E01E0923F01F092400180914501909151
:1013700046010297B9F580913D0190913E01A091FF
:101380003F01B0914001A7019601281B390B4A0B80
:101390005B0BDA01C90186399105A105B10510F190
:1013A000C0923D01D0923E01E0923F01F092400197
:1013B00080913C0191E0811190E090933C0141E0EB
:1013C00050E0882311F050E040E063E082E090E0DC
:1013D000DF91CF911F910F91FF90EF90DF90CF9011
:1013E0000C94D401DF91CF911F910F91FF90EF905A
:1013F000DF90CF900895CF93DF931F92CDB7DEB7E4
:101400000E94FC040E9405090E94FA030E948F08B2
:101410000E9410080E942A0988E00E94A90360E047
:1014200081E00E94950860E080E00E9495081982A2
:1014300010E30E9424040E945B080E9453000E9453
:10144000590980910001813391F40E94C100CE01BD
:1014500001960E94CF03882361F389819FEC980F46
:10146000943050F4809300010E944209E2CF84330B
:1014700071F70E94DC00EBCF8335D9F610930001A1
:1014800060E090E080E00E94B508EECFAA1BBB1B95
:1014900051E107C0AA1FBB1FA617B70710F0A61B74
:1014A000B70B881F991F5A95A9F780959095BC0195
:1014B000CD010895A1E21A2EAA1BBB1BFD010DC090
:1014C000AA1FBB1FEE1FFF1FA217B307E407F507F4
:1014D00020F0A21BB30BE40BF50B661F771F881FD0
:1014E000991F1A9469F760957095809590959B0166
:1014F000AC01BD01CF010895A29FB001B39FC0010F
:10150000A39F700D811D1124911DB29F700D811D2F
:101510001124911D08950E947C0AA59F900DB49FEF
:10152000900DA49F800D911D11240895F894FFCF74
:101530003001000800400000010004010008002004
:0A15400000400080000001000400DC
:00000001FF
